{
  "_format": "hh-sol-artifact-1",
  "contractName": "DeTweet",
  "sourceName": "contracts/DeTweet.sol",
  "abi": [
    {
      "inputs": [],
      "stateMutability": "nonpayable",
      "type": "constructor"
    },
    {
      "anonymous": false,
      "inputs": [
        {
          "indexed": true,
          "internalType": "address",
          "name": "from",
          "type": "address"
        },
        {
          "indexed": false,
          "internalType": "uint256",
          "name": "timestamp",
          "type": "uint256"
        },
        {
          "components": [
            {
              "internalType": "uint256",
              "name": "id",
              "type": "uint256"
            },
            {
              "internalType": "string",
              "name": "content",
              "type": "string"
            },
            {
              "internalType": "address",
              "name": "author",
              "type": "address"
            },
            {
              "internalType": "uint256",
              "name": "timestamp",
              "type": "uint256"
            }
          ],
          "indexed": false,
          "internalType": "struct DeTweet.Tweet",
          "name": "tweet",
          "type": "tuple"
        }
      ],
      "name": "NewTweet",
      "type": "event"
    },
    {
      "inputs": [],
      "name": "getTweets",
      "outputs": [
        {
          "components": [
            {
              "internalType": "uint256",
              "name": "id",
              "type": "uint256"
            },
            {
              "internalType": "string",
              "name": "content",
              "type": "string"
            },
            {
              "internalType": "address",
              "name": "author",
              "type": "address"
            },
            {
              "internalType": "uint256",
              "name": "timestamp",
              "type": "uint256"
            }
          ],
          "internalType": "struct DeTweet.Tweet[]",
          "name": "",
          "type": "tuple[]"
        }
      ],
      "stateMutability": "view",
      "type": "function"
    },
    {
      "inputs": [
        {
          "internalType": "string",
          "name": "_content",
          "type": "string"
        }
      ],
      "name": "sendTweet",
      "outputs": [],
      "stateMutability": "nonpayable",
      "type": "function"
    }
  ],
  "bytecode": "0x608060405234801561001057600080fd5b506100596040518060400160405280601a81526020017f4465547765657420636f6e7472616374206465706c6f7965642100000000000081525061005e60201b61034a1760201c565b6101e1565b6100fa81604051602401610072919061015f565b6040516020818303038152906040527f41304fac000000000000000000000000000000000000000000000000000000007bffffffffffffffffffffffffffffffffffffffffffffffffffffffff19166020820180517bffffffffffffffffffffffffffffffffffffffffffffffffffffffff83818316178352505050506100fd60201b60201c565b50565b60008151905060006a636f6e736f6c652e6c6f679050602083016000808483855afa5050505050565b600061013182610181565b61013b818561018c565b935061014b81856020860161019d565b610154816101d0565b840191505092915050565b600060208201905081810360008301526101798184610126565b905092915050565b600081519050919050565b600082825260208201905092915050565b60005b838110156101bb5780820151818401526020810190506101a0565b838111156101ca576000848401525b50505050565b6000601f19601f8301169050919050565b610ac9806101f06000396000f3fe608060405234801561001057600080fd5b50600436106100365760003560e01c8063dc6e18691461003b578063fc86741f14610057575b600080fd5b610055600480360381019061005091906105b6565b610075565b005b61005f6101ef565b60405161006c91906107f4565b60405180910390f35b6100b56040518060400160405280601881526020017f2573207477656574656420772f206d657373616765202573000000000000000081525033836103e3565b6000604051806080016040528060008054905081526020018381526020013373ffffffffffffffffffffffffffffffffffffffff16815260200142815250905060008190806001815401808255809150506001900390600052602060002090600402016000909190919091506000820151816000015560208201518160010190805190602001906101479291906104ab565b5060408201518160020160006101000a81548173ffffffffffffffffffffffffffffffffffffffff021916908373ffffffffffffffffffffffffffffffffffffffff1602179055506060820151816003015550503373ffffffffffffffffffffffffffffffffffffffff167fec5d2a51de9fe1756ada4711ec68230be4e6abef208a027f4e9f8d5d6131076542836040516101e392919061087d565b60405180910390a25050565b60606000805480602002602001604051908101604052809291908181526020016000905b82821015610341578382906000526020600020906004020160405180608001604052908160008201548152602001600182018054610250906109f2565b80601f016020809104026020016040519081016040528092919081815260200182805461027c906109f2565b80156102c95780601f1061029e576101008083540402835291602001916102c9565b820191906000526020600020905b8154815290600101906020018083116102ac57829003601f168201915b505050505081526020016002820160009054906101000a900473ffffffffffffffffffffffffffffffffffffffff1673ffffffffffffffffffffffffffffffffffffffff1673ffffffffffffffffffffffffffffffffffffffff16815260200160038201548152505081526020019060010190610213565b50505050905090565b6103e08160405160240161035e9190610816565b6040516020818303038152906040527f41304fac000000000000000000000000000000000000000000000000000000007bffffffffffffffffffffffffffffffffffffffffffffffffffffffff19166020820180517bffffffffffffffffffffffffffffffffffffffffffffffffffffffff8381831617835250505050610482565b50565b61047d8383836040516024016103fb93929190610838565b6040516020818303038152906040527fe0e9ad4f000000000000000000000000000000000000000000000000000000007bffffffffffffffffffffffffffffffffffffffffffffffffffffffff19166020820180517bffffffffffffffffffffffffffffffffffffffffffffffffffffffff8381831617835250505050610482565b505050565b60008151905060006a636f6e736f6c652e6c6f679050602083016000808483855afa5050505050565b8280546104b7906109f2565b90600052602060002090601f0160209004810192826104d95760008555610520565b82601f106104f257805160ff1916838001178555610520565b82800160010185558215610520579182015b8281111561051f578251825591602001919060010190610504565b5b50905061052d9190610531565b5090565b5b8082111561054a576000816000905550600101610532565b5090565b600061056161055c846108de565b6108ad565b90508281526020810184848401111561057957600080fd5b6105848482856109b0565b509392505050565b600082601f83011261059d57600080fd5b81356105ad84826020860161054e565b91505092915050565b6000602082840312156105c857600080fd5b600082013567ffffffffffffffff8111156105e257600080fd5b6105ee8482850161058c565b91505092915050565b60006106038383610710565b905092915050565b61061481610974565b82525050565b61062381610974565b82525050565b60006106348261091e565b61063e8185610941565b9350836020820285016106508561090e565b8060005b8581101561068c578484038952815161066d85826105f7565b945061067883610934565b925060208a01995050600181019050610654565b50829750879550505050505092915050565b60006106a982610929565b6106b38185610952565b93506106c38185602086016109bf565b6106cc81610a82565b840191505092915050565b60006106e282610929565b6106ec8185610963565b93506106fc8185602086016109bf565b61070581610a82565b840191505092915050565b600060808301600083015161072860008601826107d6565b5060208301518482036020860152610740828261069e565b9150506040830151610755604086018261060b565b50606083015161076860608601826107d6565b508091505092915050565b600060808301600083015161078b60008601826107d6565b50602083015184820360208601526107a3828261069e565b91505060408301516107b8604086018261060b565b5060608301516107cb60608601826107d6565b508091505092915050565b6107df816109a6565b82525050565b6107ee816109a6565b82525050565b6000602082019050818103600083015261080e8184610629565b905092915050565b6000602082019050818103600083015261083081846106d7565b905092915050565b6000606082019050818103600083015261085281866106d7565b9050610861602083018561061a565b818103604083015261087381846106d7565b9050949350505050565b600060408201905061089260008301856107e5565b81810360208301526108a48184610773565b90509392505050565b6000604051905081810181811067ffffffffffffffff821117156108d4576108d3610a53565b5b8060405250919050565b600067ffffffffffffffff8211156108f9576108f8610a53565b5b601f19601f8301169050602081019050919050565b6000819050602082019050919050565b600081519050919050565b600081519050919050565b6000602082019050919050565b600082825260208201905092915050565b600082825260208201905092915050565b600082825260208201905092915050565b600061097f82610986565b9050919050565b600073ffffffffffffffffffffffffffffffffffffffff82169050919050565b6000819050919050565b82818337600083830152505050565b60005b838110156109dd5780820151818401526020810190506109c2565b838111156109ec576000848401525b50505050565b60006002820490506001821680610a0a57607f821691505b60208210811415610a1e57610a1d610a24565b5b50919050565b7f4e487b7100000000000000000000000000000000000000000000000000000000600052602260045260246000fd5b7f4e487b7100000000000000000000000000000000000000000000000000000000600052604160045260246000fd5b6000601f19601f830116905091905056fea26469706673582212205b80e3d99a19871a7983881b5e3377b6c2169f1f86fd51e0a58a61ac28e30c2a64736f6c63430008000033",
  "linkReferences": {},
  "deployedLinkReferences": {}
}