{
  "_format": "hh-sol-artifact-1",
  "contractName": "WavePortal",
  "sourceName": "contracts/WavePortal.sol",
  "abi": [
    {
      "inputs": [],
      "stateMutability": "payable",
      "type": "constructor"
    },
    {
      "inputs": [],
      "name": "getPlayers",
      "outputs": [
        {
          "internalType": "address[]",
          "name": "",
          "type": "address[]"
        }
      ],
      "stateMutability": "view",
      "type": "function"
    },
    {
      "inputs": [],
      "name": "getTotalWaves",
      "outputs": [
        {
          "internalType": "uint256",
          "name": "",
          "type": "uint256"
        }
      ],
      "stateMutability": "view",
      "type": "function"
    },
    {
      "inputs": [
        {
          "internalType": "uint256",
          "name": "",
          "type": "uint256"
        }
      ],
      "name": "players",
      "outputs": [
        {
          "internalType": "address",
          "name": "",
          "type": "address"
        }
      ],
      "stateMutability": "view",
      "type": "function"
    },
    {
      "inputs": [],
      "name": "wave",
      "outputs": [],
      "stateMutability": "nonpayable",
      "type": "function"
    }
  ],
  "bytecode": "0x60806040526200003360405180606001604052806025815260200162000d36602591396200003960201b6200044a1760201c565b620001cd565b620000d98160405160240162000050919062000146565b6040516020818303038152906040527f41304fac000000000000000000000000000000000000000000000000000000007bffffffffffffffffffffffffffffffffffffffffffffffffffffffff19166020820180517bffffffffffffffffffffffffffffffffffffffffffffffffffffffff8381831617835250505050620000dc60201b60201c565b50565b60008151905060006a636f6e736f6c652e6c6f679050602083016000808483855afa5050505050565b600062000112826200016a565b6200011e818562000175565b93506200013081856020860162000186565b6200013b81620001bc565b840191505092915050565b6000602082019050818103600083015262000162818462000105565b905092915050565b600081519050919050565b600082825260208201905092915050565b60005b83811015620001a657808201518184015260208101905062000189565b83811115620001b6576000848401525b50505050565b6000601f19601f8301169050919050565b610b5980620001dd6000396000f3fe608060405234801561001057600080fd5b506004361061004c5760003560e01c80636fe15b44146100515780638b5b9ccc1461005b5780639a2cdc0814610079578063f71d96cb14610097575b600080fd5b6100596100c7565b005b610063610280565b6040516100709190610874565b60405180910390f35b6100816103c0565b60405161008e9190610958565b60405180910390f35b6100b160048036038101906100ac9190610659565b61040b565b6040516100be9190610859565b60405180910390f35b60016000808282546100d991906109d3565b925050819055506001339080600181540180825580915050600190039060005260206000200160009091909190916101000a81548173ffffffffffffffffffffffffffffffffffffffff021916908373ffffffffffffffffffffffffffffffffffffffff1602179055506101826040518060400160405280600d81526020017f2573206861732077617665642100000000000000000000000000000000000000815250336104e3565b6000655af3107a40009050478111156101d0576040517f08c379a00000000000000000000000000000000000000000000000000000000081526004016101c790610918565b60405180910390fd5b60003373ffffffffffffffffffffffffffffffffffffffff16826040516101f690610844565b60006040518083038185875af1925050503d8060008114610233576040519150601f19603f3d011682016040523d82523d6000602084013e610238565b606091505b505090508061027c576040517f08c379a000000000000000000000000000000000000000000000000000000000815260040161027390610938565b60405180910390fd5b5050565b60606103346040518060400160405280601481526020017f546865206c61737420776176657220697320256400000000000000000000000081525060018080805490506102cd9190610a29565b81548110610304577f4e487b7100000000000000000000000000000000000000000000000000000000600052603260045260246000fd5b9060005260206000200160009054906101000a900473ffffffffffffffffffffffffffffffffffffffff166104e3565b60018054806020026020016040519081016040528092919081815260200182805480156103b657602002820191906000526020600020905b8160009054906101000a900473ffffffffffffffffffffffffffffffffffffffff1673ffffffffffffffffffffffffffffffffffffffff168152602001906001019080831161036c575b5050505050905090565b60006104036040518060400160405280601781526020017f5765206861766520256420746f74616c2077617665732100000000000000000081525060005461057f565b600054905090565b6001818154811061041b57600080fd5b906000526020600020016000915054906101000a900473ffffffffffffffffffffffffffffffffffffffff1681565b6104e08160405160240161045e9190610896565b6040516020818303038152906040527f41304fac000000000000000000000000000000000000000000000000000000007bffffffffffffffffffffffffffffffffffffffffffffffffffffffff19166020820180517bffffffffffffffffffffffffffffffffffffffffffffffffffffffff838183161783525050505061061b565b50565b61057b82826040516024016104f99291906108b8565b6040516020818303038152906040527f319af333000000000000000000000000000000000000000000000000000000007bffffffffffffffffffffffffffffffffffffffffffffffffffffffff19166020820180517bffffffffffffffffffffffffffffffffffffffffffffffffffffffff838183161783525050505061061b565b5050565b61061782826040516024016105959291906108e8565b6040516020818303038152906040527f9710a9d0000000000000000000000000000000000000000000000000000000007bffffffffffffffffffffffffffffffffffffffffffffffffffffffff19166020820180517bffffffffffffffffffffffffffffffffffffffffffffffffffffffff838183161783525050505061061b565b5050565b60008151905060006a636f6e736f6c652e6c6f679050602083016000808483855afa5050505050565b60008135905061065381610b0c565b92915050565b60006020828403121561066b57600080fd5b600061067984828501610644565b91505092915050565b600061068e838361069a565b60208301905092915050565b6106a381610a5d565b82525050565b6106b281610a5d565b82525050565b60006106c382610983565b6106cd81856109a6565b93506106d883610973565b8060005b838110156107095781516106f08882610682565b97506106fb83610999565b9250506001810190506106dc565b5085935050505092915050565b60006107218261098e565b61072b81856109c2565b935061073b818560208601610a99565b61074481610afb565b840191505092915050565b600061075c6034836109c2565b91507f547279696e6720746f207769746864726177206d6f7265206d6f6e657920746860008301527f616e2074686520636f6e7472616374206861732e0000000000000000000000006020830152604082019050919050565b60006107c26027836109c2565b91507f4661696c656420746f207769746864726177206d6f6e65792066726f6d20636f60008301527f6e74726163742e000000000000000000000000000000000000000000000000006020830152604082019050919050565b60006108286000836109b7565b9150600082019050919050565b61083e81610a8f565b82525050565b600061084f8261081b565b9150819050919050565b600060208201905061086e60008301846106a9565b92915050565b6000602082019050818103600083015261088e81846106b8565b905092915050565b600060208201905081810360008301526108b08184610716565b905092915050565b600060408201905081810360008301526108d28185610716565b90506108e160208301846106a9565b9392505050565b600060408201905081810360008301526109028185610716565b90506109116020830184610835565b9392505050565b600060208201905081810360008301526109318161074f565b9050919050565b60006020820190508181036000830152610951816107b5565b9050919050565b600060208201905061096d6000830184610835565b92915050565b6000819050602082019050919050565b600081519050919050565b600081519050919050565b6000602082019050919050565b600082825260208201905092915050565b600081905092915050565b600082825260208201905092915050565b60006109de82610a8f565b91506109e983610a8f565b9250827fffffffffffffffffffffffffffffffffffffffffffffffffffffffffffffffff03821115610a1e57610a1d610acc565b5b828201905092915050565b6000610a3482610a8f565b9150610a3f83610a8f565b925082821015610a5257610a51610acc565b5b828203905092915050565b6000610a6882610a6f565b9050919050565b600073ffffffffffffffffffffffffffffffffffffffff82169050919050565b6000819050919050565b60005b83811015610ab7578082015181840152602081019050610a9c565b83811115610ac6576000848401525b50505050565b7f4e487b7100000000000000000000000000000000000000000000000000000000600052601160045260246000fd5b6000601f19601f8301169050919050565b610b1581610a8f565b8114610b2057600080fd5b5056fea26469706673582212200438b61b38be259f6517fc348cfe9135cd61e3462886c5b62928968a48172d7364736f6c63430008000033596f20796f2c204920616d206120636f6e747261637420616e64204920616d20736d617274",
  "linkReferences": {},
  "deployedLinkReferences": {}
}